:020000040800F2
:10000000480800209D010008A1010008A301000884
:10001000A5010008A7010008A901000800000000D0
:10002000000000000000000000000000AB0100081C
:10003000AD01000800000000AF010008B101000898
:10004000B3010008B3010008B3010008B3010008C0
:10005000B3010008B3010008B3010008B3010008B0
:10006000B3010008B3010008B3010008B3010008A0
:10007000B3010008B3010008B3010008B301000890
:10008000B3010008B3010008B3010008B301000880
:10009000ED190008B3010008B3010008B30100081E
:1000A000B3010008B3010008B3010008B301000860
:1000B0007B090008490D00080B100008B301000877
:1000C000B3010008B3010008B3010008B301000840
:1000D000B3010008B30100081F060008B3010008BF
:1000E000B3010008B3010008B301000800F002F8F2
:1000F00000F03FF80AA090E8000C82448344AAF183
:100100000107DA4501D100F034F8AFF2090EBAE880
:100110000F0013F0010F18BFFB1A43F0010318473B
:100120004C2200006C220000103A24BF78C878C12D
:10013000FAD8520724BF30C830C144BF04680C60ED
:10014000704700000023002400250026103A28BF35
:1001500078C1FBD8520728BF30C148BF0B60704739
:10016000642901F06985002070471FB51FBD10B5D7
:1001700010BD01F027FE1146FFF7F7FF00F02AF847
:1001800001F045FE03B4FFF7F2FF03BC00F038FABC
:1001900030BF72B662B680F30888704708480047DF
:1001A000FEE7FEE7FEE7FEE7FEE7FEE7FEE7FEE727
:1001B000FEE7FEE703480449044A054B7047000088
:1001C000ED000008480200204808002048040020F4
:1001D0004804002086B0002423A000680590092070
:1001E00000F05DF9482000F0B3F900F0CBFA00F020
:1001F000EDFA40F2E73140F2EF3000F048FB4FF407
:10020000E131242000F046FA47214FF6FF7000F05C
:1002100081FC0F231A4608210120009401F09EF969
:1002200000F04DFB1EE01148C089104989890F4A32
:1002300052890E4B1B89CDE90132CDE903100B48E1
:10024000C0880090094883884288018808A001F08E
:10025000B3FC0E480068C0430D49C1F8B801322014
:1002600000F0AEF9DFE7000011134478B60100207A
:1002700025642C25642C25642C25642C25642C25D0
:10028000642C25642C25640A00000000B8812142FA
:1002900000802142A34A0A400243A34B1A607047E0
:1002A0000146072323EA010212029F4B1B1D186817
:1002B0004FF6FF0318409D4B184310439A4B1B1DEC
:1002C000186070472DE9F0410746884614461D46E0
:1002D0002846FFF7E5FFC5F1040007FA00F60F20F6
:1002E000284100EA0800064306F00F06E21704EB77
:1002F000D2625211920002F1E022D2F8002121468E
:10030000E31704EBD3635B11A4EB431C012303FA53
:100310000CF31A432046E31704EBD3635B119B00F5
:1003200003F1E023C3F800218148005D40EA061094
:100330007F490855BDE8F08170B504460B46CE17DD
:1003400001EB9676C6F38700CE1701EB9676B610D2
:10035000A1EB8606B606350E764B9B6943F001038A
:10036000744EB3614FEAB63353F820300F26AE40D7
:10037000B343714E46F82030334653F8203004FA28
:1003800005F61E436C4B43F820606C4B1B6801263E
:100390008E403343694E336002F0010343B1674B33
:1003A0000C331B6801268E403343644E0C36336099
:1003B00002F0020343B1614B08331E6801238B40F6
:1003C0001E435E4B08331E6070BD00B500205949C6
:1003D0000861C8601420486100208861C86108462F
:1003E000006840F001000860084640685449084031
:1003F0005049486008460068524908404D49086025
:100400000846006820F4802008600846406820F410
:10041000FE0048600020886000214FF00060FFF778
:1004200039FF00BD10B540480830006840F00400B6
:100430003D49083108603F48C06940F080503D495F
:10044000C8614148406840F480703F4948600846B0
:10045000006840F0040008600846006840F00200B0
:100460000860FFF795FE10BD3048001D2E49091D9C
:1004700008607047014649062E4A926942F001021F
:100480002C4B9A612C4A083A526822F0E0622A4BBF
:10049000083B5A601A4652680A435A60704730B5A2
:1004A00004460025FFF791FF2248006840F48030A1
:1004B0002049086000BF1F480068400C0028FAD09F
:1004C0004FF480601B494860A01EC4B208464068D3
:1004D00040EA844048600846406840F48030486004
:1004E0001A48006840F03200184908601148006856
:1004F00040F080700F49086000BF0E480068400E51
:100500000028FAD00B48406840F0020009494860D2
:1005100005E008484068C0F3870505F00305022D93
:10052000F7D130BD80FFFF1F08ED00E00000FA05A5
:1005300000E400E000100240080001400004014017
:100540000000FFF8FFFFF6FE0070004000200240B0
:100550004FF0E021096921F004014FF0E022116120
:10056000C21700EB5272C2F3C702234B1A7019462E
:10057000097801EB4102C2EBC1114FF6FF7202EAAA
:10058000C1011E4A1180704701461B4A12784A4336
:100590004FF0E0235A6100229A6101221A6100BFE4
:1005A0004FF0E022106900F001021AB100F480322D
:1005B000002AF5D000224FF0E0231A619A617047BB
:1005C00001460E4A12884A434FF0E0235A61002246
:1005D0009A6101221A6100BF4FF0E022106900F019
:1005E00001021AB100F48032002AF5D000224FF047
:1005F000E0231A619A617047000000200200002089
:10060000014600BF704700BF584A128802F04002FE
:10061000002AF9D0C2B2554B1B1D1A8070475349AE
:10062000098801F0200111B35049091D0988C8B299
:100630004F49098801F40041C9B94D49098801F4BD
:10064000804161B10A2803D00021494A118020E08D
:100650004749098841F40041454A118019E00D28B5
:1006600006D14349098841F48041414A118010E094
:100670003F490988C1F30D013E4A50543C4909885D
:10068000491C3B4A118011460988C72901DD002118
:10069000118070472DE9F05F05460E46300101F0EC
:1006A00005FD8146344905FB01F001F0FFFC82465F
:1006B000494601F019FC0746384601F0D7FC84B2E0
:1006C000204601F0F3FC8346394601F0CFFD824617
:1006D0004FF0834101F0FEFC814601F0C7FC8046EB
:1006E0004FF6FF7000EA041404EB080084B22348BC
:1006F000806940F00400214988610846C06940F4DF
:100700000030C8611E48006820F47F401C49086022
:100710000846006840F40B4008601848006940F43F
:100720000030164908610846006920F4003008616D
:100730000E4808300480001D008842F20C01084376
:100740000A490C3108800846008840F4807008800F
:100750000846008840F0200008800223262219461F
:100760000320FFF7AFFDBDE8F09F0000004400400C
:10077000080000207800002040420F0000100240D6
:10078000000801400F48806940F008000D49886169
:100790000D48006820F07F400B490860084600685B
:1007A00040F04C50086008480830006840F4804031
:1007B0000549083108600846006840F400400860B8
:1007C0007047000000100240040C01402DE9F04782
:1007D000C04D284601F04AFC84B2204601F066FC78
:1007E0008146294601F042FD80464FF0834101F0E9
:1007F00071FC074601F03AFC86B24FF6FF7000EA42
:100800000414A01984B2B448806940F00400B249CD
:1008100088610846806940F480408861AF4800687C
:1008200020F47F60AD4908600846006840F40B6022
:100830000860A948C06840F48040A749C8600846DD
:10084000C06820F48040C860A5480480001D00886E
:1008500043F20C410843A249091D0880081D008885
:1008600040F40050091D0880081F008840F4807083
:10087000091F08800846008840F0200008800223F5
:10088000252201211846FFF71DFDBDE8F08770B550
:1008900005460C469048C06940F001008E49C86189
:1008A000880485850485808940F001008904888159
:1008B00002231C2203210120FFF704FD70BD4FF02D
:1008C0008040008840F001004FF080410880704770
:1008D0004FF0804000884FF080410880704700BF93
:1008E0007F490839098801F040010029F8D07C4986
:1008F000091F08807047F0B505460F27152300240F
:100900000822002622E035F81700C4F10A0C012164
:1009100001FA0CF1084050B17248C05C511E4FF012
:10092000010C0CFA01FC40EA0C006E49C854601C32
:10093000C4B2501EC2B212B90822581EC3B20B2C48
:1009400002D10024781EC7B2701CC6B2B02EDADB0A
:100950000F20FFF7C4FF002205E06249885CFFF723
:10096000BEFF501CC2B2162AF7DB5F480078FFF7C3
:10097000B6FF0020FFF7B3FFF0BD10B54FF0804089
:10098000008A00F00100F8B158480078401C57492F
:10099000087057480078401C5549087000F079FCF1
:1009A000524800780E280FD1002050490870601C72
:1009B000C4B2642C03DA4F48FFF79DFF04E0652CB6
:1009C00002DD4D48FFF797FF4FF08040008A20F08E
:1009D00001004FF08041088210BD10B50146012092
:1009E000464B18700020464B1870464B1870464B0B
:1009F000187008780F286AD1087E002867D1002275
:100A00003BE03E480078085C3D4B1C780123A34046
:100A1000184070B13D483B4B1B7830F813003A4BFF
:100A20001C780123A3401843384B364C247823F814
:100A3000140033480078401C314B1870324800785D
:100A4000401C314B18702E480078082807D1002030
:100A50002B4B187029480078401C284B18702A48E6
:100A600000780B2807D10020274B18702548007804
:100A7000401C244B1870501CC2B2B02AC1DBC87D88
:100A800000F0010018B10120204B188402E0002082
:100A90001E4B1884C87D00F0020018B101201B4BCA
:100AA000588402E00020194B58840020184B18701D
:100AB000C87D00F0040008B101201870C87D00F066
:100AC000080010B10220124B1870002010BDFF204A
:100AD000FCE700000000344200100240040801401E
:100AE00008380140400100204D0000204A0000204D
:100AF0004B0000200A0000202A00002051000020A6
:100B000052000020530000205400002070010020FB
:100B10005000002070B504460D46FC48C06940F006
:100B20000200FA49C8610846C06940F00400C86183
:100B30000846806940F0080088610846806940F0F6
:100B400004008861F2480068F2490840F0490860F2
:100B500008460068F0490843ED490860081D006830
:100B6000EE490840EA49091D08600846006840F05F
:100B700088000860EA48006820F07F40E849086083
:100B80000846006840F008400860E1480C30006802
:100B9000DF490C310860E2480C300068E0490C3154
:100BA0000860E0480480001F0580DE481438008893
:100BB00040F201110843DB491439088008460088D7
:100BC00041F210010843D7491439088008460088CB
:100BD0000880081D008840F201110843D1491039EE
:100BE00008800846008841F210010843CD491039B9
:100BF0000880084600880880CB480480001F0580D4
:100C0000C9481438008840F201110843C649143914
:100C100008800846008841F210010843C24914398F
:100C20000880084600880880081D008840F20111ED
:100C30000843BD49103908800846008841F2100178
:100C40000843B94910390880084600880880B5482B
:100C50000C380088B3490C3908800846008840F0F9
:100C6000010008800846008808800846008840F097
:100C7000100008800846008808800846008840F474
:100C8000807008800846008808800846008840F484
:100C900080500880A4480C380088A3490C3908808B
:100CA0000846008840F00100088008460088088057
:100CB0000846008840F01000088008460088088038
:100CC0000846008840F48070088008460088088044
:100CD0000846008840F480500880924820380088F8
:100CE00040F01E008F49203908800846008840F0F7
:100CF000010008808B482C38008840F001008949A9
:100D00002C39088088482038008840F01E00864929
:100D1000203908800846008840F001000880824899
:100D20002C38008840F001007F492C3908800223CC
:100D30001D2200210320FFF7C5FA02231E220021F5
:100D40000320FFF7BFFA70BD76491C390888774940
:100D5000097801F08001002949D100F00101D1B1E9
:100D60007249097801F04001A9B17049097801F090
:100D70003F013F290AD16D49097841F080016B4A52
:100D800011704FF6FF716A4A118004E067490978D3
:100D9000491C664A117000F0100141B3634909789B
:100DA00001F0400199B16149097841F080015F4A41
:100DB00011705C49143109885D4A118059490C3918
:100DC000098821F40051574A0C3A11800FE00021A4
:100DD000574A11804021554A11700021514A083A62
:100DE0001180111F098841F40051121F11805149CF
:100DF000097801F08001002949D100F00101D1B149
:100E00004C49097801F04001A9B14A49097801F03B
:100E10003F013F290AD14749097841F08001454AFD
:100E200011704FF6FF71444A118004E0414909787E
:100E3000491C404A117000F0080141B33D4909784E
:100E400001F0400199B13B49097841F08001394AEC
:100E50001170344910310988374A118031490C39F1
:100E6000098821F400712F4A0C3A11800FE000210B
:100E7000314A118040212F4A11700021294A083A35
:100E80001180111F098841F40071121F11802B4934
:100E9000097801F08001C1BB00F00101D1B12749FF
:100EA000097801F04001A9B12449097801F03F0116
:100EB0003F290AD12149097841F080011F4A117068
:100EC0004FF6FF711E4A118004E01C490978491C45
:100ED0001A4A117000F00401B9B11849097801F0FB
:100EE000400179B31549097841F08001134A117026
:100EF0000C490C310988124A11800A490C390988B9
:100F000021F02001074A0C3A11802BE0001002402A
:100F1000000C014000FFFF008800008800FFFF0F69
:100F2000000801402C0400402C0800406200002012
:100F3000640000205E000020600000205A000020B5
:100F40005C000020FFE70021FE4A11804021FE4A9C
:100F500011700021FD4A1180111F098841F0200104
:100F6000121F1180FA49097801F08001C1BB00F01D
:100F70001001D1B1F649097801F04001A9B1F44955
:100F8000097801F03F013F290AD1F149097841F080
:100F90008001EF4A11704FF6FF71EE4A118004E0B4
:100FA000EB490978491CEA4A117000F00201B9B115
:100FB000E749097801F0400199B1E549097841F024
:100FC0008001E34A1170E14910310988E14A11803A
:100FD000DE49091F098821F00201DC4A121F118035
:100FE0000EE00021DB4A11804021D94A1170002116
:100FF000D64A1180111F098841F00201121F118089
:101000000021D24A143A11807047D3490888D34945
:10101000097801F08001002949D100F00101D1B126
:10102000CE49097801F04001A9B1CC49097801F015
:101030003F013F290AD1C949097841F08001C74AD7
:1010400011704FF6FF71C64A118004E0C349097858
:10105000491CC24A117000F0100141B3BF49097820
:1010600001F0400199B1BD49097841F08001BB4AC6
:101070001170B94930310988B94A1180B649103127
:10108000098821F40051B44A103211800FE0002188
:10109000B34A11804021B14A11700021AE4A143286
:1010A0001180111F098841F40051121F1180AD49B0
:1010B000097801F08001002949D100F00101D1B186
:1010C000A849097801F04001A9B1A649097801F0C1
:1010D0003F013F290AD1A349097841F08001A14A83
:1010E00011704FF6FF71A04A118004E09D49097804
:1010F000491C9C4A117000F0080141B399490978D4
:1011000001F0400199B19749097841F08001954A71
:10111000117091492C310988934A11808E49103100
:10112000098821F400718C4A103211800FE00021EF
:101130008D4A118040218B4A11700021864A143259
:101140001180111F098841F40071121F1180874915
:10115000097801F08001C1BB00F00101D1B18349E0
:10116000097801F04001A9B18049097801F03F01F7
:101170003F290AD17D49097841F080017B4A1170ED
:101180004FF6FF717A4A118004E078490978491CCA
:10119000764A117000F00401B9B17449097801F080
:1011A000400199B17149097841F080016F4A11708D
:1011B0006949283109886E4A1180674910310988C8
:1011C00021F02001644A103211800FE00021684AAA
:1011D00011804021654A117000215F4A143211804C
:1011E000111F098841F02001121F118061490978FF
:1011F00001F08001C1BB00F01001D1B15D49097857
:1012000001F04001A9B15B49097801F03F013F2994
:101210000AD15849097841F08001564A11704FF6B9
:10122000FF71554A118004E052490978491C514A1E
:10123000117000F00201B9B14E49097801F0400186
:1012400099B14C49097841F080014A4A11704249EC
:1012500024310988484A11803F491031098821F01A
:1012600002013D4A103211800FE00021424A1180F4
:101270004021404A11700021374A14321180111F59
:10128000098841F00201121F11800021324A1180A9
:1012900070473A49097801F08001F1B1374909787E
:1012A00001F03F004FF6FF7101EA00403449098820
:1012B000014488B233490988411A40F6C412914268
:1012C00004DB30490988091A914203DD2E49088060
:1012D0002C4908800021294A11702C49097801F015
:1012E0008001F1B12949097801F03F004FF6FF7103
:1012F00001EA004026490988014488B22149498809
:10130000411A40F6C412914204DB1E494988091A69
:10131000914203DD1C4948801A49488000211B4A3C
:1013200011700949097801F0800199B306490978DB
:1013300001F03F004FF6FF7101EA004001490988C2
:10134000014428E05C0000205A00002024040040F2
:1013500056000020580000201008004072000020B5
:10136000740000206E000020700000206A00002041
:101370006C00002066000020680000206200002051
:1013800064000020CE010020B60100205E00002095
:101390006000002013E088B263498988411A40F652
:1013A000C412914204DB60498988091A914203DD25
:1013B0005E4988805C49888000215D4A11705D49E2
:1013C000097801F08001F1B15A49097801F03F0034
:1013D0004FF6FF7101EA004057490988014488B27D
:1013E0005149C988411A40F6C412914204DB4E4962
:1013F000C988091A914203DD4C49C8804A49C8800E
:1014000000214C4A11704D49097801F08001F1B179
:101410004A49097801F03F004FF6FF7101EA0040A8
:1014200047490988014488B23F490989411A40F671
:10143000C412914204DB3C490989091A914203DD37
:101440003A4908813849088100213C4A11703D49D8
:10145000097801F08001F1B13A49097801F03F00C3
:101460004FF6FF7101EA004037490988014488B20C
:101470002D494989411A40F6C412914204DB2A4998
:101480004989091A914203DD284948812649488142
:1014900000212C4A11702D49097801F08001F1B129
:1014A0002A49097801F03F004FF6FF7101EA004038
:1014B00027490988014488B21B498989411A40F6A5
:1014C000C412914204DB18498989091A914203DD4B
:1014D000164988811449888100211C4A11701D49D0
:1014E000097801F08001F1B11A49097801F03F0053
:1014F0004FF6FF7101EA004017490988014488B29C
:101500000949C989411A40F6C412914204DB0649CF
:10151000C989091A914203DD0449C8810249C88179
:1015200000210C4A11707047CE010020B601002046
:101530005A000020560000205800002066000020BD
:10154000680000206A0000206C0000206E0000206F
:101550007000002072000020740000202DE9F04788
:1015600004460D4617461E46DDF820904FF0000851
:1015700014B10DB107B116B90120BDE8F087601EA6
:10158000C4B2681EC5B2781EC7B2701E86B2FE48CD
:10159000806940F00400FC498861FC48006820F440
:1015A0007F20FA4908600846006840F43820086047
:1015B000F6480830006840F4C050F449083108602B
:1015C000F148C06940F00070EF49C8610020F0495F
:1015D00008600846006840F00100086008E008F173
:1015E00001001FFA80F8B8F1640F01DD0220C4E7A2
:1015F000E748001D006800F001000028EFD0E44833
:101600000068E3490860084600680860084600680A
:1016100008600846006808600846006808600846D8
:10162000006808600020DA491C310860084600683C
:1016300040EA897008600846006840EA0460086073
:101640000846006840EA055008600846006840EA1D
:10165000074008600846006830430860CC480068CE
:1016600020F00100CA49086009E008F101001FFAF2
:1016700080F84FF6F070804501DD03207DE7C44817
:10168000001D006800F001000028EED1C14800688C
:1016900040F00100BF490860BE481C30006820F0DF
:1016A0000100BC491C310860BA480C30006840F0A9
:1016B0000100B8490C310860B648001D0068B54902
:1016C000091D0860B34814300068B249143108603D
:1016D0000020B049403108600021AE48443001602C
:1016E000AC481C30006840F00100AA491C31086079
:1016F000A84800680020A7490860A5481430006881
:1017000040F00200A2491431086002231422002193
:101710000120FEF7D7FD00202FE7F0B505460E4665
:10172000059C9B480830006800F0806008B10021EB
:1017300011E097480830006800F0006008B101210E
:1017400009E093480830006800F0805008B1022199
:1017500001E0FF20F0BD00278E48803800EB01102B
:1017600007601EB9C5F30A056D0502E025F0604566
:10177000ED008848803800EB011000682843854F51
:10178000803F07EB011738608248803800EB01107A
:10179000006840EA86077F48803800EB0110076048
:1017A0007C48803800EB0110006840EA4207794825
:1017B000803800EB0110076003F00F037548803894
:1017C00000EB0110406820F00F077248803800EBF2
:1017D000011047606F48803800EB011040681843E3
:1017E0006C4F803F07EB01177860E0790006A7791E
:1017F00040EA0740677940EA0727207907436548B0
:10180000803800EB0110C760E0780006A77840EA56
:101810000740677840EA0720277838435D4F803FCC
:1018200007EB0117B8605B48803800EB01100068D7
:1018300040F001075748803800EB01100760084668
:1018400088E70146002021B1012916D002293CD1A8
:1018500027E04F4A0832126802F0010210434C4A56
:101860000832126802F002021043494A0832126834
:1018700002F0806240EA126029E0454A08321268AC
:1018800002F001021043424A0832126802F00202DA
:1018900010433F4A0832126802F0006240EA526088
:1018A00015E03B4A0832126802F001021043384A40
:1018B0000832126802F002021043354A08321268F8
:1018C00002F0805240EA926001E0052000BF00BFB4
:1018D0007047014629B92E480C30006800F003001B
:1018E0007047012905D12A481030006800F0030034
:1018F000F6E70020F4E7F0B5DDE90554254E503E4B
:1019000006EB0016366806F00406167016783EB927
:10191000204E503E06EB00163668760D0E6006E04F
:101920001C4E503E06EB00163668F6080E60194E47
:10193000503E06EB0016366806F002061E70154E85
:10194000503E06EB0016766806F00F062E70114E1C
:10195000503E06EB0016B66826700E4E503E06EB63
:101960000016B668360A66700A4E503E06EB001640
:10197000B668360CA670074E503E06EB0016B668E9
:10198000360EE670034E07E00010024004080140E6
:101990000064004000660040503E06EB0016F6680A
:1019A0002671574E06EB0016F668360A6671544EDD
:1019B00006EB0016F668360CA671514E06EB0016C3
:1019C000F668360EE67130B94E4E366846F020069F
:1019D0004C4F3E6009E0012807D14A4E361D36685B
:1019E00046F02006474F3F1D3E60F0BD00B589B070
:1019F00007A803A904AB05AACDE9001006A9002099
:101A0000FFF779FF40A0069900F0D6F89DF8141072
:101A10003FA000F0D1F89DF8101040A000F0CCF8E5
:101A20009DF80C1040A000F0C7F89DF81C1041A0D4
:101A300000F0C2F89DF81D1042A000F0BDF89DF81E
:101A40001E1044A000F0B8F89DF81F1045A000F04B
:101A5000B3F89DF8201047A000F0AEF89DF82110D3
:101A600048A000F0A9F89DF822104AA000F0A4F8C0
:101A70009DF823104BA000F09FF809B000BDF8B509
:101A800005460E46002433460022114620200095CC
:101A9000FFF743FE074601E0601C84B23846FFF7BB
:101AA000D0FE072803D040F6FF708442F4DB40F6F6
:101AB000FF70844201DB0120F8BD0020FCE710B577
:101AC00086B004460020FFF704FF10B9002006B0DE
:101AD00010BD02A803AB04AA05A9CDE900040020AB
:101AE000FFF709FF0598122805D19DF8100010B9DD
:101AF0009DF80C0008B1002002909DF80800E6E770
:101B0000B06500400C64004069643A25640D0A0029
:101B10006964653A25640D0A000000007274723A27
:101B200025640D0A000000006C656E3A25640D0AFC
:101B30000000000072786275665B305D3A25640DC6
:101B40000A00000072786275665B315D3A25640DAB
:101B50000A00000072786275665B325D3A25640D9A
:101B60000A00000072786275665B335D3A25640D89
:101B70000A00000072786275665B345D3A25640D78
:101B80000A00000072786275665B355D3A25640D67
:101B90000A00000072786275665B365D3A25640D56
:101BA0000A00000072786275665B375D3A25640D45
:101BB0000A000000704700000FB4044910B503AAE2
:101BC000029800F0D1F810BC5DF814FB040000206E
:101BD0002DE9F0410E460446002020622046E168CF
:101BE000884730B3252805D0D4E901219047206AE1
:101BF000401CF2E7E168204600278847050018D01E
:101C0000A5F14100192802D820354FF4006732466B
:101C1000294620462760FEF7A3FA40B1012804D0E8
:101C2000F61D26F007060836D8E7361DD6E7284603
:101C3000DAE7206ABDE8F0812DE9F041064600248C
:101C400010687529314615A510D0AFF30080002823
:101C500002DA404212A507E031688A0701D511A5D2
:101C600002E0490704D510A5012401E0AFF300808C
:101C700000210A2306F1240707E0B0FBF3F203FB7F
:101C80001200303078541046491C0028F5D1234604
:101C90002A463046BDE8F04100F00CB800000000D4
:101CA0002D0000002B00000020000000704770474E
:101CB000704770472DE9F0470D4699469246044615
:101CC00000F124080168880604D5E06921F01001BC
:101CD000216000E00120A84201DD471B00E0002751
:101CE000A1697A1902EB0900081AA0612078C006E0
:101CF00002D42046AFF30080002608E0D4E9012199
:101D00001AF806009047206A401C761C20624E4557
:101D1000F4DB2078C0060AD52046AFF3008006E049
:101D2000D4E9012130209047206A401C2062381EEF
:101D3000A7F10107F4DC07E0D4E9012118F8050058
:101D40009047206A401C2062281EA5F10105F3DCA3
:101D50002046AFF300802078000602D50220BDE8BF
:101D6000F0870120FBE70000074B70B50D467B4470
:101D700000F011F80446284600F020F810B14FF0AA
:101D8000FF3070BD204670BD95E8FFFF01694A1C19
:101D900002610878704700B58FB0CDE901310021AC
:101DA000059105497944CDE9031011466846FFF7CE
:101DB0000FFF0FB000BD0000E5FFFFFF007B00F04C
:101DC00080007047754600F029F8AE460500694668
:101DD000534620F00700854618B020B5FEF7EAF913
:101DE000BDE820404FF000064FF000074FF000081C
:101DF0004FF0000B21F00701AC46ACE8C009ACE89D
:101E0000C009ACE8C009ACE8C0098D46704704467B
:101E1000AFF300802046FEF7B5F900000048704798
:101E2000E801002090EA010F48BF81F0004100F175
:101E30002E82421A3CBF801A89184FEAD0524FF0C6
:101E40007F4C1CEA410FA2EBD15318BF9CEA026FF2
:101E500000F03B804FF0004C4CEA00204CEA01219E
:101E600021FA03FC10EB0C0C1ED202F1FF325FEAE8
:101E70001C2040EBC25038BF70471CF07F0F4FEA68
:101E8000400C18BFBCF17F4F38BF7047C3F120032F
:101E9000994008BF20F00100BCF17F4F38BF704768
:101EA000A0F1C04000F0DDB94FEA3C00000A40EB71
:101EB000C25028BF1CF0FF0F4FEA400CE6D018BFFD
:101EC000BCF17F4F38BF7047EAE79CEA026F05D04C
:101ED00010EA5C0F08BF00F00040704710B500F03A
:101EE0007AF900BF64FBBE3E4FF47F0C1CEAD012AF
:101EF0001EBF1CEAD11392EA0C0F93EA0C0F00F0FC
:101F0000858090EA010F48BF42F4807240F4000CD3
:101F100041F400002CF07F4120F07F4000B5814269
:101F2000A2EB03020FF2081CACEB504EC0F1000014
:101F30009EF800E04FEA4E0E00FB0EFC38BF490051
:101F40004FEA2C1C02F5FA020CFB0EF34FEACE1EF0
:101F50004FEA112C4FEAC1210EEB635E42EB2242A5
:101F60000EFB0CFC4FEA1C5300FB03114FEA112C33
:101F70004FEA01310EFB0CFC4FEADC4C00FB0C116C
:101F8000C14228BF09184CEB03335DF804EB10EB9A
:101F9000410143EBC250B2F57C0F38BF704729D5E1
:101FA00012F0F00F1CBF00F1C04000F0004070477D
:101FB000008182838485868788898B8C8D8E8F9122
:101FC0009293959697999A9C9D9FA0A2A3A5A7A846
:101FD000AAACAEB0B2B3B5B7B9BCBEC0C2C5C7C972
:101FE000CCCED1D4D7D9DCDFE2E6E9ECF0F3F7FAD6
:101FF000FE0000004FEA400C0CF1807CBCF17E4FEB
:1020000028BF7047B0F1C04000F02BB990EA010F33
:102010000CEAD11348BF42F48072624538BF634571
:1020200007D213F47F0F16D080EA010000F00040C1
:10203000704710B500F0CFF8097EFC3E00F005B8FF
:1020400080EA010000F00040704780EA010000F0E3
:10205000004000F006B912F47F0F04BF0248704739
:1020600080EA010000F0FDB80000C07FC10DD1F191
:102070009E0206DB4FEA002343F0004323FA02F0FE
:102080007047004207D54FEA4001B1F1FE4F02D23E
:102090004FF00000704710B500F09DF84992248081
:1020A000002070476FEA200070470000B0FA80F30C
:1020B00010FA03F2C3F19D030AD0D90501EB1220F7
:1020C000530638BF704700F1010008BF20F001003F
:1020D000704700004FF47F0C1CEAD0121EBF1CEAB0
:1020E000D11392EA0C0F93EA0C0F00F0478090EAAC
:1020F000010F48BF42F480724FF0004C4CEA0020C0
:102100004CEA012102EB0302A0FB0113A2F500023D
:10211000002918BF43F001035B0028BF4FEA3303D7
:1021200042EB22425FEA132C4CEBC2502EBFBCEBB9
:10213000436FB2F57C0F70474FEA036CBCF1004F60
:1021400008BF20F00100B2F57C0F38BF70470BD5F7
:1021500082F0FF0212F5803FC8BF704700F1C04017
:10216000D8BF00F00040704700F5000C5FEA4C0C4F
:1021700048BF7047B0F1C04000F073B890EA010F5B
:102180000CEAD11348BF42F48072624538BF634500
:1021900004D280EA010000F00040704710B500F062
:1021A0001AF800BF8900013E00F007B800F009B836
:1021B0005FEA410C5FEA1C6C08D080EA010000F085
:1021C00050B85FEA400C5FEA1C6CF6D14FF000405B
:1021D000A0F5800070470EF1020E2EF0030E5EF89F
:1021E000044B244204D44FEA4102B2F17F4F11D88C
:1021F0004FEA4003B3F17F4F0CD80ED14FEAD07CA9
:10220000B2F17F4F0CEB4C0C0CF1020C08BF4CEB05
:10221000D17C04E04FF0080C01E04FEAD17C0CEBDC
:102220004C0324FA03F404F00704B4F1040C06D2BE
:102230000EEB840CBDE810404CF0010C6047DFE869
:102240000CF0070802024FF00040A0F5800010BD1E
:102250000846420018BFD2F1807288BF00F00040EB
:1022600010BDFF2141EAD050C005704780F000400A
:1022700090EA010F7FF5DDAD81F0004100F007B875
:1022800090EA010F48BF81F000413FF5D2AD421AFC
:1022900004D882F00042A0EB020011444FEAD05271
:1022A0004FF07F4C1CEA410FA2EBD15318BF9CEAC0
:1022B000026F4AD04FF0004C4CEA00204CEA01215A
:1022C00021FA03FCB0EB0C0C0FD412F0FE0F36D049
:1022D0005FEA4C001DD5001240EBC25038BF70477A
:1022E0001CF03F0F18BF70470BE0A2F101025FEA3C
:1022F0001C2040EBC25038BF70471CF07F0F18BF46
:102300007047C3F12003994014BF401E20F0010024
:10231000704780084FEA122308BF7047B0FA80FC6C
:10232000A2EB0C02CCF1280C60FA0CF093EA122F0D
:1023300004BF00EBC25070474FEAC3707047130AE6
:102340005FEADC1008BF7047F6E79CEA026F04D032
:1023500010EA5C0F08BF0020704710B5FFF73BFF85
:1023600040DFF63E81F00040704700008C230008FB
:102370000000002078000000280100080424000864
:1023800078000020D0070000440100080000000091
:10239000000000000000DC05BE00C80000000000D6
:1023A000000000000000000000000000000000002D
:1023B000000000000000F401BE00C80000000000A2
:1023C000000000000000000000000000000000000D
:1023D00000000000000000000000000000000000FD
:1023E00000000000000000000000000000000000ED
:1023F00000000000000000000000000000000000DD
:0424000000000000D8
:040000050800019D51
:00000001FF
